{
  "contractName": "BlockDice",
  "abi": [
    {
      "constant": true,
      "inputs": [],
      "name": "owner",
      "outputs": [
        {
          "name": "",
          "type": "address"
        }
      ],
      "payable": false,
      "stateMutability": "view",
      "type": "function",
      "signature": "0x8da5cb5b"
    },
    {
      "inputs": [],
      "payable": false,
      "stateMutability": "nonpayable",
      "type": "constructor",
      "signature": "constructor"
    },
    {
      "anonymous": false,
      "inputs": [
        {
          "indexed": false,
          "name": "index",
          "type": "uint256"
        },
        {
          "indexed": false,
          "name": "bettor",
          "type": "address"
        },
        {
          "indexed": false,
          "name": "amount",
          "type": "uint256"
        },
        {
          "indexed": false,
          "name": "challenge1",
          "type": "uint8"
        },
        {
          "indexed": false,
          "name": "challenge2",
          "type": "uint8"
        },
        {
          "indexed": false,
          "name": "rotate",
          "type": "uint256"
        }
      ],
      "name": "BET",
      "type": "event",
      "signature": "0x962ed598110d672085c6e947f639274cc98adeb685a3f8a4a452f86ff3fa1828"
    },
    {
      "anonymous": false,
      "inputs": [
        {
          "indexed": false,
          "name": "index",
          "type": "uint256"
        },
        {
          "indexed": false,
          "name": "bettor",
          "type": "address"
        },
        {
          "indexed": false,
          "name": "amount",
          "type": "uint256"
        },
        {
          "indexed": false,
          "name": "challenge1",
          "type": "uint8"
        },
        {
          "indexed": false,
          "name": "challenge2",
          "type": "uint8"
        },
        {
          "indexed": false,
          "name": "rotate",
          "type": "uint256"
        },
        {
          "indexed": false,
          "name": "dice1",
          "type": "uint8"
        },
        {
          "indexed": false,
          "name": "dice2",
          "type": "uint8"
        }
      ],
      "name": "WIN",
      "type": "event",
      "signature": "0x4fabaa316796ee2772553b31099cc32e0f4de4f7ea708f3ea8175f3f7b2b5ece"
    },
    {
      "anonymous": false,
      "inputs": [
        {
          "indexed": false,
          "name": "index",
          "type": "uint256"
        },
        {
          "indexed": false,
          "name": "bettor",
          "type": "address"
        },
        {
          "indexed": false,
          "name": "amount",
          "type": "uint256"
        },
        {
          "indexed": false,
          "name": "challenge1",
          "type": "uint8"
        },
        {
          "indexed": false,
          "name": "challenge2",
          "type": "uint8"
        },
        {
          "indexed": false,
          "name": "rotate",
          "type": "uint256"
        },
        {
          "indexed": false,
          "name": "dice1",
          "type": "uint8"
        },
        {
          "indexed": false,
          "name": "dice2",
          "type": "uint8"
        }
      ],
      "name": "FAIL",
      "type": "event",
      "signature": "0x3db5ef04dbc2e33679055d07a3a5f84c2fd6497e2e2081313a49578c8dd4a57a"
    },
    {
      "constant": true,
      "inputs": [],
      "name": "getPot",
      "outputs": [
        {
          "name": "pot",
          "type": "uint256"
        }
      ],
      "payable": false,
      "stateMutability": "view",
      "type": "function",
      "signature": "0x403c9fa8"
    },
    {
      "constant": true,
      "inputs": [],
      "name": "getRotate",
      "outputs": [
        {
          "name": "rotate",
          "type": "uint256"
        }
      ],
      "payable": false,
      "stateMutability": "view",
      "type": "function",
      "signature": "0xad62d4a6"
    },
    {
      "constant": false,
      "inputs": [
        {
          "name": "challenge1",
          "type": "uint8"
        },
        {
          "name": "challenge2",
          "type": "uint8"
        },
        {
          "name": "rotate",
          "type": "uint256"
        }
      ],
      "name": "bet",
      "outputs": [
        {
          "name": "result",
          "type": "bool"
        }
      ],
      "payable": true,
      "stateMutability": "payable",
      "type": "function",
      "signature": "0x18ab30e6"
    },
    {
      "constant": false,
      "inputs": [
        {
          "name": "dice1",
          "type": "uint8"
        },
        {
          "name": "dice2",
          "type": "uint8"
        },
        {
          "name": "rotate",
          "type": "uint256"
        }
      ],
      "name": "distribute",
      "outputs": [],
      "payable": true,
      "stateMutability": "payable",
      "type": "function",
      "signature": "0xc593017f"
    },
    {
      "constant": true,
      "inputs": [
        {
          "name": "challenge1",
          "type": "uint8"
        },
        {
          "name": "challenge2",
          "type": "uint8"
        },
        {
          "name": "dice1",
          "type": "uint8"
        },
        {
          "name": "dice2",
          "type": "uint8"
        }
      ],
      "name": "isMatch",
      "outputs": [
        {
          "name": "",
          "type": "uint8"
        }
      ],
      "payable": false,
      "stateMutability": "pure",
      "type": "function",
      "signature": "0xb713c298"
    },
    {
      "constant": true,
      "inputs": [
        {
          "name": "index",
          "type": "uint256"
        }
      ],
      "name": "getBetInfo",
      "outputs": [
        {
          "name": "bettor",
          "type": "address"
        },
        {
          "name": "challenge1",
          "type": "uint8"
        },
        {
          "name": "challenge2",
          "type": "uint8"
        },
        {
          "name": "rotate",
          "type": "uint256"
        }
      ],
      "payable": false,
      "stateMutability": "view",
      "type": "function",
      "signature": "0x79141f80"
    }
  ],
  "bytecode": "0x6080604052600160085534801561001557600080fd5b5033600660006101000a81548173ffffffffffffffffffffffffffffffffffffffff021916908373ffffffffffffffffffffffffffffffffffffffff160217905550610e89806100666000396000f3fe608060405260043610610083576000357c0100000000000000000000000000000000000000000000000000000000900463ffffffff16806318ab30e614610088578063403c9fa8146100e857806379141f80146101135780638da5cb5b146101af578063ad62d4a614610206578063b713c29814610231578063c593017f146102b8575b600080fd5b6100ce6004803603606081101561009e57600080fd5b81019080803560ff169060200190929190803560ff16906020019092919080359060200190929190505050610300565b604051808215151515815260200191505060405180910390f35b3480156100f457600080fd5b506100fd6104b8565b6040518082815260200191505060405180910390f35b34801561011f57600080fd5b5061014c6004803603602081101561013657600080fd5b81019080803590602001909291905050506104c2565b604051808573ffffffffffffffffffffffffffffffffffffffff1673ffffffffffffffffffffffffffffffffffffffff1681526020018460ff1660ff1681526020018360ff1660ff16815260200182815260200194505050505060405180910390f35b3480156101bb57600080fd5b506101c46105af565b604051808273ffffffffffffffffffffffffffffffffffffffff1673ffffffffffffffffffffffffffffffffffffffff16815260200191505060405180910390f35b34801561021257600080fd5b5061021b6105d5565b6040518082815260200191505060405180910390f35b34801561023d57600080fd5b506102946004803603608081101561025457600080fd5b81019080803560ff169060200190929190803560ff169060200190929190803560ff169060200190929190803560ff1690602001909291905050506105df565b604051808260018111156102a457fe5b60ff16815260200191505060405180910390f35b6102fe600480360360608110156102ce57600080fd5b81019080803560ff169060200190929190803560ff16906020019092919080359060200190929190505050610616565b005b6000662386f26fc1000034141515610380576040517f08c379a000000000000000000000000000000000000000000000000000000000815260040180806020018281038252600e8152602001807f4e6f7420656e6f7567682045544800000000000000000000000000000000000081525060200191505060405180910390fd5b61038b848484610aae565b15156103ff576040517f08c379a000000000000000000000000000000000000000000000000000000000815260040180806020018281038252601a8152602001807f4661696c20746f206164642061206e65772042657420496e666f00000000000081525060200191505060405180910390fd5b7f962ed598110d672085c6e947f639274cc98adeb685a3f8a4a452f86ff3fa18286001600054033334878787604051808781526020018673ffffffffffffffffffffffffffffffffffffffff1673ffffffffffffffffffffffffffffffffffffffff1681526020018581526020018460ff1660ff1681526020018360ff1660ff168152602001828152602001965050505050505060405180910390a1662386f26fc1000060075401600781905550600190509392505050565b6000600754905090565b6000806000806104d0610df0565b60026000878152602001908152602001600020608060405190810160405290816000820160009054906101000a900473ffffffffffffffffffffffffffffffffffffffff1673ffffffffffffffffffffffffffffffffffffffff1673ffffffffffffffffffffffffffffffffffffffff1681526020016000820160149054906101000a900460ff1660ff1660ff1681526020016000820160159054906101000a900460ff1660ff1660ff168152602001600182015481525050905080600001519450806020015193508060400151925080606001519150509193509193565b600660009054906101000a900473ffffffffffffffffffffffffffffffffffffffff1681565b6000600854905090565b60008260ff168560ff161480156105fb57508160ff168460ff16145b15610609576001905061060e565b600090505b949350505050565b600080610624858585610be6565b1515610698576040517f08c379a000000000000000000000000000000000000000000000000000000000815260040180806020018281038252601d8152602001807f4661696c20746f206164642061206e657720416e7377657220496e666f00000081525060200191505060405180910390fd5b6106a0610df0565b6106a8610e35565b6000600560006001600354038152602001908152602001600020606060405190810160405290816000820160009054906101000a900460ff1660ff1660ff1681526020016000820160019054906101000a900460ff1660ff1660ff168152602001600182015481525050915060015494505b600054851015610a8b5760026000868152602001908152602001600020608060405190810160405290816000820160009054906101000a900473ffffffffffffffffffffffffffffffffffffffff1673ffffffffffffffffffffffffffffffffffffffff1673ffffffffffffffffffffffffffffffffffffffff1681526020016000820160149054906101000a900460ff1660ff1660ff1681526020016000820160159054906101000a900460ff1660ff1660ff16815260200160018201548152505092508260600151826040015114151561085e576040517f08c379a000000000000000000000000000000000000000000000000000000000815260040180806020018281038252600f8152602001807f4e6f74207468697320726f74617465000000000000000000000000000000000081525060200191505060405180910390fd5b61087a83602001518460400151846000015185602001516105df565b905060018081111561088857fe5b81600181111561089457fe5b1415610988576108af8360000151662386f26fc10000610ca1565b935083600754036007819055507f4fabaa316796ee2772553b31099cc32e0f4de4f7ea708f3ea8175f3f7b2b5ece8584600001518686602001518760400151886060015188600001518960200151604051808981526020018873ffffffffffffffffffffffffffffffffffffffff1673ffffffffffffffffffffffffffffffffffffffff1681526020018781526020018660ff1660ff1681526020018560ff1660ff1681526020018481526020018360ff1660ff1681526020018260ff1660ff1681526020019850505050505050505060405180910390a15b6000600181111561099557fe5b8160018111156109a157fe5b1415610a74577f3db5ef04dbc2e33679055d07a3a5f84c2fd6497e2e2081313a49578c8dd4a57a858460000151600086602001518760400151886060015188600001518960200151604051808981526020018873ffffffffffffffffffffffffffffffffffffffff1673ffffffffffffffffffffffffffffffffffffffff1681526020018781526020018660ff1660ff1681526020018560ff1660ff1681526020018481526020018360ff1660ff1681526020018260ff1660ff1681526020019850505050505050505060405180910390a15b610a7d85610d78565b50848060010195505061071a565b846001819055506008600081548092919060010191905055505050505050505050565b6000610ab8610df0565b33816000019073ffffffffffffffffffffffffffffffffffffffff16908173ffffffffffffffffffffffffffffffffffffffff168152505084816020019060ff16908160ff168152505083816040019060ff16908160ff16815250508281606001818152505080600260008054815260200190815260200160002060008201518160000160006101000a81548173ffffffffffffffffffffffffffffffffffffffff021916908373ffffffffffffffffffffffffffffffffffffffff16021790555060208201518160000160146101000a81548160ff021916908360ff16021790555060408201518160000160156101000a81548160ff021916908360ff16021790555060608201518160010155905050600080815480929190600101919050555060019150509392505050565b6000610bf0610e35565b84816000019060ff16908160ff168152505083816020019060ff16908160ff1681525050828160400181815250508060056000600354815260200190815260200160002060008201518160000160006101000a81548160ff021916908360ff16021790555060208201518160000160016101000a81548160ff021916908360ff1602179055506040820151816001015590505060036000815480929190600101919050555060019150509392505050565b600080600a83811515610cb057fe5b049050600081846002020390508473ffffffffffffffffffffffffffffffffffffffff166108fc829081150290604051600060405180830381858888f19350505050158015610d03573d6000803e3d6000fd5b50600660009054906101000a900473ffffffffffffffffffffffffffffffffffffffff1673ffffffffffffffffffffffffffffffffffffffff166108fc839081150290604051600060405180830381858888f19350505050158015610d6c573d6000803e3d6000fd5b50809250505092915050565b600060026000838152602001908152602001600020600080820160006101000a81549073ffffffffffffffffffffffffffffffffffffffff02191690556000820160146101000a81549060ff02191690556000820160156101000a81549060ff02191690556001820160009055505060019050919050565b608060405190810160405280600073ffffffffffffffffffffffffffffffffffffffff168152602001600060ff168152602001600060ff168152602001600081525090565b606060405190810160405280600060ff168152602001600060ff16815260200160008152509056fea165627a7a7230582040abc53b70e8bf1a18fed422de7f9f2cbcf25f281e2f2a0b38573804f42581c50029",
  "source": "pragma solidity >=0.4.21 <0.6.0;\r\n\r\ncontract BlockDice {\r\n\r\n    struct BetInfo {\r\n        address payable bettor; // payable 특정블럭에 돈을 보내야함\r\n        uint8 challenge1;\r\n        uint8 challenge2;\r\n        uint256 rotate;\r\n    }\r\n\r\n    struct BetResult {\r\n        uint8 dice1;\r\n        uint8 dice2;\r\n        uint256 rotate;\r\n    }\r\n\r\n    uint256 private _tail;\r\n    uint256 private _head;\r\n    mapping (uint256 => BetInfo) private _bets;\r\n\r\n    uint256 private _atail;\r\n    uint256 private _ahead;\r\n    mapping (uint256 => BetResult) private _answers;\r\n\r\n    address payable public owner;\r\n\r\n    uint256 constant internal BET_AMOUNT = 10 * 10 ** 15;//0.01 ETH\r\n    uint256 private _pot; //pot머니\r\n    uint256 private _rotate = 1;//회차\r\n\r\n    enum BettingResult {Fail, Win}\r\n    event BET(uint256 index, address bettor, uint256 amount, uint8 challenge1, uint8 challenge2, uint256 rotate);\r\n    event WIN(uint256 index, address bettor, uint256 amount, uint8 challenge1, uint8 challenge2,  uint256 rotate , uint8 dice1, uint8 dice2);\r\n    event FAIL(uint256 index, address bettor, uint256 amount, uint8 challenge1, uint8 challenge2,  uint256 rotate , uint8 dice1, uint8 dice2);\r\n\r\n    constructor() public { \r\n        owner = msg.sender;\r\n    }\r\n\r\n    function getPot() public view returns (uint256 pot) {\r\n        return _pot;\r\n    }\r\n\r\n     function getRotate() public view returns (uint256 rotate) {\r\n        return _rotate;\r\n    }\r\n\r\n\r\n    // Bet\r\n    /**\r\n    * @dev 베팅을 한다. 유저는 0.01eth를 보내야하고 베팅용 1byte 글자를 보낸다.\r\n    * 큐에 저장된 베팅 정보는 이후 distyribute 함수에서 해결된다.\r\n    * @param challenge1 dice1 베팅값\r\n    * @param challenge2 dice2 베팅값\r\n    * @return 함수가 잘 수행되었는지 확인하는 bool값\r\n    */\r\n    function bet(uint8 challenge1, uint8 challenge2, uint256 rotate) public payable returns (bool result) {\r\n        //check the proper ether is sent\r\n        require(msg.value == BET_AMOUNT, \"Not enough ETH\");\r\n        //push bet to the queue\r\n        require(pushBet(challenge1, challenge2, rotate), \"Fail to add a new Bet Info\");\r\n        //emit event\r\n        emit BET(_tail-1, msg.sender, msg.value, challenge1, challenge2, rotate);\r\n        _pot = _pot + BET_AMOUNT;\r\n\r\n        return true;\r\n    }\r\n\r\n    //Distribute\r\n    /**\r\n     * @dev 베팅 결과값을 확인 하고 팟머니를 분배한다.\r\n     * 정답 실패 : 팟머니 축적, 정답 : 팟머니 획득\r\n     */\r\n    function distribute(uint8 dice1, uint8 dice2, uint256 rotate) public payable {\r\n        //head 3 4 5 6 7 8 9 10 11 12 tail\r\n        uint256 cur;\r\n        uint256 transferAmount;\r\n\r\n        require(pushAnswers(dice1, dice2, rotate), \"Fail to add a new Answer Info\");\r\n\r\n        BetInfo memory b;\r\n        BetResult memory r;\r\n        BettingResult currentBettingResult;\r\n        r = _answers[_atail - 1];\r\n\r\n        for(cur = _head; cur<_tail ; cur++) {\r\n            b = _bets[cur];\r\n\r\n            require(r.rotate == b.rotate, \"Not this rotate\");\r\n            currentBettingResult = isMatch(b.challenge1, b.challenge2, r.dice1, r.dice2);\r\n            //if win, bettor gets pot\r\n            if(currentBettingResult == BettingResult.Win) {\r\n                //transfer pot\r\n                transferAmount = transfetAfterPayingFee(b.bettor, BET_AMOUNT);\r\n                // pot = pot - BET_AMOUNT* 1.9\r\n                _pot = _pot - transferAmount;\r\n                //emiit WIN\r\n                emit WIN(cur, b.bettor, transferAmount, b.challenge1, b.challenge2, b.rotate, r.dice1, r.dice2);\r\n            }\r\n            //if fail, bettor's money goes pot\r\n            if(currentBettingResult == BettingResult.Fail) {\r\n                //pot = pot + BET_AMOUNT\r\n                //_pot = _pot + BET_AMOUNT;\r\n                emit FAIL (cur, b.bettor, 0, b.challenge1, b.challenge2, b.rotate, r.dice1, r.dice2);\r\n            }\r\n\r\n            popBet(cur);\r\n        }\r\n        _head = cur;\r\n        _rotate++;\r\n    }\r\n\r\n    // 수수료 0.001 eth , amountwithoutfee 0.019 eth\r\n        function transfetAfterPayingFee(address payable addr, uint256 amount) internal returns(uint256) {\r\n\r\n        uint256 fee = amount / 10; //0.001eth\r\n        uint256 amountWithoutFee = 2 * amount - fee; // 2*0.01 - 0.001 = 0.019 eth\r\n\r\n        //transfer to addr\r\n        addr.transfer(amountWithoutFee);\r\n        //transfer to owner\r\n        owner.transfer(fee);\r\n\r\n        return amountWithoutFee;\r\n    }\r\n\r\n    /**\r\n     * @dev 베팅한값과 정답을 확인한다.\r\n     * @param challenge1 dice1베팅값\r\n     * @param challenge2 dice2베팅값\r\n     * @param dice1 정답값1\r\n     * @param dice2 정답값2\r\n     * @return 정답결과\r\n     */\r\n    function isMatch(uint8 challenge1, uint8 challenge2, uint8 dice1, uint8 dice2) public pure returns(BettingResult) {\r\n      \r\n        if(challenge1 == dice1 && challenge2 == dice2) {\r\n            return BettingResult.Win;\r\n        }\r\n\r\n        return BettingResult.Fail;\r\n    }\r\n\r\n    function getBetInfo(uint256 index) public view returns (address bettor, uint8 challenge1, uint8 challenge2, uint256 rotate) {\r\n        BetInfo memory b = _bets[index];\r\n        bettor = b.bettor;\r\n        challenge1 = b.challenge1;\r\n        challenge2 = b.challenge2;\r\n        rotate = b.rotate;\r\n    }\r\n\r\n    function pushBet(uint8 challenge1, uint8 challenge2, uint256 rotate) internal returns (bool) {\r\n\r\n        BetInfo memory b;\r\n        b.bettor = msg.sender;\r\n        b.challenge1 = challenge1;\r\n        b.challenge2 = challenge2;\r\n        b.rotate = rotate;\r\n\r\n        _bets[_tail] = b;\r\n        _tail++;\r\n\r\n        return true;\r\n    }\r\n\r\n    function pushAnswers(uint8 dice1, uint8 dice2, uint256 rotate) internal returns (bool) {\r\n\r\n        BetResult memory r;\r\n        r.dice1 = dice1;\r\n        r.dice2 = dice2;\r\n        r.rotate = rotate;\r\n\r\n        _answers[_atail] = r;\r\n        _atail++;\r\n\r\n        return true;\r\n    }\r\n\r\n    function popBet(uint256 index) internal returns (bool) {\r\n        delete _bets[index];\r\n        return true;\r\n    }\r\n}",
  "sourcePath": "C:/dev/BlockDice/contracts/BlockDice.sol",
  "compiler": {
    "name": "solc",
    "version": "0.5.0+commit.1d4f565a.Emscripten.clang"
  },
  "schemaVersion": "3.0.1",
  "updatedAt": "2019-11-26T05:13:35.011Z",
  "devdoc": {
    "methods": {
      "bet(uint8,uint8,uint256)": {
        "details": "베팅을 한다. 유저는 0.01eth를 보내야하고 베팅용 1byte 글자를 보낸다.\r 큐에 저장된 베팅 정보는 이후 distyribute 함수에서 해결된다.\r",
        "params": {
          "challenge1": "dice1 베팅값\r",
          "challenge2": "dice2 베팅값\r"
        },
        "return": "함수가 잘 수행되었는지 확인하는 bool값\r"
      },
      "distribute(uint8,uint8,uint256)": {
        "details": "베팅 결과값을 확인 하고 팟머니를 분배한다.\r 정답 실패 : 팟머니 축적, 정답 : 팟머니 획득\r"
      },
      "isMatch(uint8,uint8,uint8,uint8)": {
        "details": "베팅한값과 정답을 확인한다.\r",
        "params": {
          "challenge1": "dice1베팅값\r",
          "challenge2": "dice2베팅값\r",
          "dice1": "정답값1\r",
          "dice2": "정답값2\r"
        },
        "return": "정답결과\r"
      }
    }
  },
  "userdoc": {
    "methods": {}
  }
}